{
  "contracts/StateConnector.sol": {
    "StateConnector": {
      "abi": [
        {
          "inputs": [],
          "stateMutability": "nonpayable",
          "type": "constructor"
        },
        {
          "anonymous": false,
          "inputs": [
            {
              "indexed": false,
              "internalType": "uint256",
              "name": "timestamp",
              "type": "uint256"
            },
            {
              "indexed": false,
              "internalType": "uint256",
              "name": "instructions",
              "type": "uint256"
            },
            {
              "indexed": false,
              "internalType": "bytes32",
              "name": "id",
              "type": "bytes32"
            }
          ],
          "name": "AttestationRequest",
          "type": "event"
        },
        {
          "inputs": [],
          "name": "BUFFER_TIMESTAMP_OFFSET",
          "outputs": [
            {
              "internalType": "uint256",
              "name": "",
              "type": "uint256"
            }
          ],
          "stateMutability": "view",
          "type": "function"
        },
        {
          "inputs": [],
          "name": "BUFFER_WINDOW",
          "outputs": [
            {
              "internalType": "uint256",
              "name": "",
              "type": "uint256"
            }
          ],
          "stateMutability": "view",
          "type": "function"
        },
        {
          "inputs": [],
          "name": "SIGNAL_COINBASE",
          "outputs": [
            {
              "internalType": "address",
              "name": "",
              "type": "address"
            }
          ],
          "stateMutability": "view",
          "type": "function"
        },
        {
          "inputs": [],
          "name": "TOTAL_STORED_BUFFERS",
          "outputs": [
            {
              "internalType": "uint256",
              "name": "",
              "type": "uint256"
            }
          ],
          "stateMutability": "view",
          "type": "function"
        },
        {
          "inputs": [],
          "name": "TOTAL_STORED_PROOFS",
          "outputs": [
            {
              "internalType": "uint256",
              "name": "",
              "type": "uint256"
            }
          ],
          "stateMutability": "view",
          "type": "function"
        },
        {
          "inputs": [
            {
              "internalType": "address",
              "name": "",
              "type": "address"
            }
          ],
          "name": "buffers",
          "outputs": [
            {
              "internalType": "uint256",
              "name": "latestVote",
              "type": "uint256"
            }
          ],
          "stateMutability": "view",
          "type": "function"
        },
        {
          "inputs": [
            {
              "internalType": "uint256",
              "name": "bufferNumber",
              "type": "uint256"
            },
            {
              "internalType": "bytes32",
              "name": "merkleHash",
              "type": "bytes32"
            }
          ],
          "name": "finaliseRound",
          "outputs": [],
          "stateMutability": "nonpayable",
          "type": "function"
        },
        {
          "inputs": [
            {
              "internalType": "uint256",
              "name": "bufferNumber",
              "type": "uint256"
            }
          ],
          "name": "getAttestation",
          "outputs": [
            {
              "internalType": "bytes32",
              "name": "_unmaskedMerkleHash",
              "type": "bytes32"
            }
          ],
          "stateMutability": "view",
          "type": "function"
        },
        {
          "inputs": [
            {
              "internalType": "uint256",
              "name": "",
              "type": "uint256"
            }
          ],
          "name": "merkleRoots",
          "outputs": [
            {
              "internalType": "bytes32",
              "name": "",
              "type": "bytes32"
            }
          ],
          "stateMutability": "view",
          "type": "function"
        },
        {
          "inputs": [
            {
              "internalType": "uint256",
              "name": "instructions",
              "type": "uint256"
            },
            {
              "internalType": "bytes32",
              "name": "id",
              "type": "bytes32"
            }
          ],
          "name": "requestAttestations",
          "outputs": [],
          "stateMutability": "payable",
          "type": "function"
        },
        {
          "inputs": [
            {
              "internalType": "uint256",
              "name": "bufferNumber",
              "type": "uint256"
            },
            {
              "internalType": "bytes32",
              "name": "maskedMerkleHash",
              "type": "bytes32"
            },
            {
              "internalType": "bytes32",
              "name": "committedRandom",
              "type": "bytes32"
            },
            {
              "internalType": "bytes32",
              "name": "revealedRandom",
              "type": "bytes32"
            }
          ],
          "name": "submitAttestation",
          "outputs": [
            {
              "internalType": "bool",
              "name": "_isInitialBufferSlot",
              "type": "bool"
            }
          ],
          "stateMutability": "nonpayable",
          "type": "function"
        },
        {
          "inputs": [],
          "name": "totalBuffers",
          "outputs": [
            {
              "internalType": "uint256",
              "name": "",
              "type": "uint256"
            }
          ],
          "stateMutability": "view",
          "type": "function"
        }
      ],
      "evm": {
        "bytecode": {
          "linkReferences": {},
          "object": "608060405234801561001057600080fd5b5061056a806100206000396000f3fe6080604052600436106100a75760003560e01c80637ff6faa6116100645780637ff6faa614610194578063cfd1fdad146101c5578063eaebf6d314610215578063ec7424a014610245578063f417c9d81461025a578063f5f59a4a1461026f576100a7565b806329be4db2146100ac5780634b8a125f146100e85780635f8c940d146100fd57806371c5ecb11461011257806371e245741461013c5780637c3931c61461016f575b600080fd5b3480156100b857600080fd5b506100d6600480360360208110156100cf57600080fd5b5035610284565b60408051918252519081900360200190f35b3480156100f457600080fd5b506100d6610374565b34801561010957600080fd5b506100d661037c565b34801561011e57600080fd5b506100d66004803603602081101561013557600080fd5b5035610381565b34801561014857600080fd5b506100d66004803603602081101561015f57600080fd5b50356001600160a01b0316610399565b6101926004803603604081101561018557600080fd5b50803590602001356103ae565b005b3480156101a057600080fd5b506101a9610416565b604080516001600160a01b039092168252519081900360200190f35b3480156101d157600080fd5b50610201600480360360808110156101e857600080fd5b508035906020810135906040810135906060013561041c565b604080519115158252519081900360200190f35b34801561022157600080fd5b506101926004803603604081101561023857600080fd5b50803590602001356104ba565b34801561025157600080fd5b506100d6610523565b34801561026657600080fd5b506100d6610529565b34801561027b57600080fd5b506100d661052f565b60006001821161029357600080fd5b336000908152602081905260409020600901546000198301908111156102b857600080fd5b33600090815260208190526040812060038306600381106102d557fe5b60039081029190910160020154336000908152602081905260408120919350916000198501066003811061030557fe5b60030201600101549050816040516020018082815260200191505060405160208183030381529060405280519060200120811461034157600080fd5b33600090815260208190526040812060036000198601066003811061036257fe5b60030201549290921895945050505050565b636184740081565b600381565b60028161ec40811061039257600080fd5b0154905081565b60006020819052908152604090206009015481565b600034116103bb57600080fd5b600082116103c857600080fd5b806103d257600080fd5b604080514281526020810184905280820183905290517fe6f2d013637298f343ac99cb289c3f3d6e1b35fd5da2d68c2f77ef574ead58d29181900360600190a15050565b61dead81565b6000600a63618473ff19420104851461043457600080fd5b33600081815260208181526040808320600981018a9055815160608101835289815280840189905291820187905293835291905290600387066003811061047757fe5b600302016000820151816000015560208201518160010155604082015181600201559050506001548511156104ae575060016104b2565b5060005b949350505050565b600182116104c757600080fd5b600a63618473ff1942010482146104dd57600080fd5b60015482116104eb57600080fd5b33411480156104fb57504161dead145b1561051f57600182905580600261ec4060001985010661ec40811061051c57fe5b01555b5050565b60015481565b61ec4081565b600a8156fea2646970667358221220fd4dcd76f81fd8de07cb36a7a743f77980a92d5fe3aad45000610e43a7e39e4164736f6c63430007060033",
          "opcodes": "PUSH1 0x80 PUSH1 0x40 MSTORE CALLVALUE DUP1 ISZERO PUSH2 0x10 JUMPI PUSH1 0x0 DUP1 REVERT JUMPDEST POP PUSH2 0x56A DUP1 PUSH2 0x20 PUSH1 0x0 CODECOPY PUSH1 0x0 RETURN INVALID PUSH1 0x80 PUSH1 0x40 MSTORE PUSH1 0x4 CALLDATASIZE LT PUSH2 0xA7 JUMPI PUSH1 0x0 CALLDATALOAD PUSH1 0xE0 SHR DUP1 PUSH4 0x7FF6FAA6 GT PUSH2 0x64 JUMPI DUP1 PUSH4 0x7FF6FAA6 EQ PUSH2 0x194 JUMPI DUP1 PUSH4 0xCFD1FDAD EQ PUSH2 0x1C5 JUMPI DUP1 PUSH4 0xEAEBF6D3 EQ PUSH2 0x215 JUMPI DUP1 PUSH4 0xEC7424A0 EQ PUSH2 0x245 JUMPI DUP1 PUSH4 0xF417C9D8 EQ PUSH2 0x25A JUMPI DUP1 PUSH4 0xF5F59A4A EQ PUSH2 0x26F JUMPI PUSH2 0xA7 JUMP JUMPDEST DUP1 PUSH4 0x29BE4DB2 EQ PUSH2 0xAC JUMPI DUP1 PUSH4 0x4B8A125F EQ PUSH2 0xE8 JUMPI DUP1 PUSH4 0x5F8C940D EQ PUSH2 0xFD JUMPI DUP1 PUSH4 0x71C5ECB1 EQ PUSH2 0x112 JUMPI DUP1 PUSH4 0x71E24574 EQ PUSH2 0x13C JUMPI DUP1 PUSH4 0x7C3931C6 EQ PUSH2 0x16F JUMPI JUMPDEST PUSH1 0x0 DUP1 REVERT JUMPDEST CALLVALUE DUP1 ISZERO PUSH2 0xB8 JUMPI PUSH1 0x0 DUP1 REVERT JUMPDEST POP PUSH2 0xD6 PUSH1 0x4 DUP1 CALLDATASIZE SUB PUSH1 0x20 DUP2 LT ISZERO PUSH2 0xCF JUMPI PUSH1 0x0 DUP1 REVERT JUMPDEST POP CALLDATALOAD PUSH2 0x284 JUMP JUMPDEST PUSH1 0x40 DUP1 MLOAD SWAP2 DUP3 MSTORE MLOAD SWAP1 DUP2 SWAP1 SUB PUSH1 0x20 ADD SWAP1 RETURN JUMPDEST CALLVALUE DUP1 ISZERO PUSH2 0xF4 JUMPI PUSH1 0x0 DUP1 REVERT JUMPDEST POP PUSH2 0xD6 PUSH2 0x374 JUMP JUMPDEST CALLVALUE DUP1 ISZERO PUSH2 0x109 JUMPI PUSH1 0x0 DUP1 REVERT JUMPDEST POP PUSH2 0xD6 PUSH2 0x37C JUMP JUMPDEST CALLVALUE DUP1 ISZERO PUSH2 0x11E JUMPI PUSH1 0x0 DUP1 REVERT JUMPDEST POP PUSH2 0xD6 PUSH1 0x4 DUP1 CALLDATASIZE SUB PUSH1 0x20 DUP2 LT ISZERO PUSH2 0x135 JUMPI PUSH1 0x0 DUP1 REVERT JUMPDEST POP CALLDATALOAD PUSH2 0x381 JUMP JUMPDEST CALLVALUE DUP1 ISZERO PUSH2 0x148 JUMPI PUSH1 0x0 DUP1 REVERT JUMPDEST POP PUSH2 0xD6 PUSH1 0x4 DUP1 CALLDATASIZE SUB PUSH1 0x20 DUP2 LT ISZERO PUSH2 0x15F JUMPI PUSH1 0x0 DUP1 REVERT JUMPDEST POP CALLDATALOAD PUSH1 0x1 PUSH1 0x1 PUSH1 0xA0 SHL SUB AND PUSH2 0x399 JUMP JUMPDEST PUSH2 0x192 PUSH1 0x4 DUP1 CALLDATASIZE SUB PUSH1 0x40 DUP2 LT ISZERO PUSH2 0x185 JUMPI PUSH1 0x0 DUP1 REVERT JUMPDEST POP DUP1 CALLDATALOAD SWAP1 PUSH1 0x20 ADD CALLDATALOAD PUSH2 0x3AE JUMP JUMPDEST STOP JUMPDEST CALLVALUE DUP1 ISZERO PUSH2 0x1A0 JUMPI PUSH1 0x0 DUP1 REVERT JUMPDEST POP PUSH2 0x1A9 PUSH2 0x416 JUMP JUMPDEST PUSH1 0x40 DUP1 MLOAD PUSH1 0x1 PUSH1 0x1 PUSH1 0xA0 SHL SUB SWAP1 SWAP3 AND DUP3 MSTORE MLOAD SWAP1 DUP2 SWAP1 SUB PUSH1 0x20 ADD SWAP1 RETURN JUMPDEST CALLVALUE DUP1 ISZERO PUSH2 0x1D1 JUMPI PUSH1 0x0 DUP1 REVERT JUMPDEST POP PUSH2 0x201 PUSH1 0x4 DUP1 CALLDATASIZE SUB PUSH1 0x80 DUP2 LT ISZERO PUSH2 0x1E8 JUMPI PUSH1 0x0 DUP1 REVERT JUMPDEST POP DUP1 CALLDATALOAD SWAP1 PUSH1 0x20 DUP2 ADD CALLDATALOAD SWAP1 PUSH1 0x40 DUP2 ADD CALLDATALOAD SWAP1 PUSH1 0x60 ADD CALLDATALOAD PUSH2 0x41C JUMP JUMPDEST PUSH1 0x40 DUP1 MLOAD SWAP2 ISZERO ISZERO DUP3 MSTORE MLOAD SWAP1 DUP2 SWAP1 SUB PUSH1 0x20 ADD SWAP1 RETURN JUMPDEST CALLVALUE DUP1 ISZERO PUSH2 0x221 JUMPI PUSH1 0x0 DUP1 REVERT JUMPDEST POP PUSH2 0x192 PUSH1 0x4 DUP1 CALLDATASIZE SUB PUSH1 0x40 DUP2 LT ISZERO PUSH2 0x238 JUMPI PUSH1 0x0 DUP1 REVERT JUMPDEST POP DUP1 CALLDATALOAD SWAP1 PUSH1 0x20 ADD CALLDATALOAD PUSH2 0x4BA JUMP JUMPDEST CALLVALUE DUP1 ISZERO PUSH2 0x251 JUMPI PUSH1 0x0 DUP1 REVERT JUMPDEST POP PUSH2 0xD6 PUSH2 0x523 JUMP JUMPDEST CALLVALUE DUP1 ISZERO PUSH2 0x266 JUMPI PUSH1 0x0 DUP1 REVERT JUMPDEST POP PUSH2 0xD6 PUSH2 0x529 JUMP JUMPDEST CALLVALUE DUP1 ISZERO PUSH2 0x27B JUMPI PUSH1 0x0 DUP1 REVERT JUMPDEST POP PUSH2 0xD6 PUSH2 0x52F JUMP JUMPDEST PUSH1 0x0 PUSH1 0x1 DUP3 GT PUSH2 0x293 JUMPI PUSH1 0x0 DUP1 REVERT JUMPDEST CALLER PUSH1 0x0 SWAP1 DUP2 MSTORE PUSH1 0x20 DUP2 SWAP1 MSTORE PUSH1 0x40 SWAP1 KECCAK256 PUSH1 0x9 ADD SLOAD PUSH1 0x0 NOT DUP4 ADD SWAP1 DUP2 GT ISZERO PUSH2 0x2B8 JUMPI PUSH1 0x0 DUP1 REVERT JUMPDEST CALLER PUSH1 0x0 SWAP1 DUP2 MSTORE PUSH1 0x20 DUP2 SWAP1 MSTORE PUSH1 0x40 DUP2 KECCAK256 PUSH1 0x3 DUP4 MOD PUSH1 0x3 DUP2 LT PUSH2 0x2D5 JUMPI INVALID JUMPDEST PUSH1 0x3 SWAP1 DUP2 MUL SWAP2 SWAP1 SWAP2 ADD PUSH1 0x2 ADD SLOAD CALLER PUSH1 0x0 SWAP1 DUP2 MSTORE PUSH1 0x20 DUP2 SWAP1 MSTORE PUSH1 0x40 DUP2 KECCAK256 SWAP2 SWAP4 POP SWAP2 PUSH1 0x0 NOT DUP6 ADD MOD PUSH1 0x3 DUP2 LT PUSH2 0x305 JUMPI INVALID JUMPDEST PUSH1 0x3 MUL ADD PUSH1 0x1 ADD SLOAD SWAP1 POP DUP2 PUSH1 0x40 MLOAD PUSH1 0x20 ADD DUP1 DUP3 DUP2 MSTORE PUSH1 0x20 ADD SWAP2 POP POP PUSH1 0x40 MLOAD PUSH1 0x20 DUP2 DUP4 SUB SUB DUP2 MSTORE SWAP1 PUSH1 0x40 MSTORE DUP1 MLOAD SWAP1 PUSH1 0x20 ADD KECCAK256 DUP2 EQ PUSH2 0x341 JUMPI PUSH1 0x0 DUP1 REVERT JUMPDEST CALLER PUSH1 0x0 SWAP1 DUP2 MSTORE PUSH1 0x20 DUP2 SWAP1 MSTORE PUSH1 0x40 DUP2 KECCAK256 PUSH1 0x3 PUSH1 0x0 NOT DUP7 ADD MOD PUSH1 0x3 DUP2 LT PUSH2 0x362 JUMPI INVALID JUMPDEST PUSH1 0x3 MUL ADD SLOAD SWAP3 SWAP1 SWAP3 XOR SWAP6 SWAP5 POP POP POP POP POP JUMP JUMPDEST PUSH4 0x61847400 DUP2 JUMP JUMPDEST PUSH1 0x3 DUP2 JUMP JUMPDEST PUSH1 0x2 DUP2 PUSH2 0xEC40 DUP2 LT PUSH2 0x392 JUMPI PUSH1 0x0 DUP1 REVERT JUMPDEST ADD SLOAD SWAP1 POP DUP2 JUMP JUMPDEST PUSH1 0x0 PUSH1 0x20 DUP2 SWAP1 MSTORE SWAP1 DUP2 MSTORE PUSH1 0x40 SWAP1 KECCAK256 PUSH1 0x9 ADD SLOAD DUP2 JUMP JUMPDEST PUSH1 0x0 CALLVALUE GT PUSH2 0x3BB JUMPI PUSH1 0x0 DUP1 REVERT JUMPDEST PUSH1 0x0 DUP3 GT PUSH2 0x3C8 JUMPI PUSH1 0x0 DUP1 REVERT JUMPDEST DUP1 PUSH2 0x3D2 JUMPI PUSH1 0x0 DUP1 REVERT JUMPDEST PUSH1 0x40 DUP1 MLOAD TIMESTAMP DUP2 MSTORE PUSH1 0x20 DUP2 ADD DUP5 SWAP1 MSTORE DUP1 DUP3 ADD DUP4 SWAP1 MSTORE SWAP1 MLOAD PUSH32 0xE6F2D013637298F343AC99CB289C3F3D6E1B35FD5DA2D68C2F77EF574EAD58D2 SWAP2 DUP2 SWAP1 SUB PUSH1 0x60 ADD SWAP1 LOG1 POP POP JUMP JUMPDEST PUSH2 0xDEAD DUP2 JUMP JUMPDEST PUSH1 0x0 PUSH1 0xA PUSH4 0x618473FF NOT TIMESTAMP ADD DIV DUP6 EQ PUSH2 0x434 JUMPI PUSH1 0x0 DUP1 REVERT JUMPDEST CALLER PUSH1 0x0 DUP2 DUP2 MSTORE PUSH1 0x20 DUP2 DUP2 MSTORE PUSH1 0x40 DUP1 DUP4 KECCAK256 PUSH1 0x9 DUP2 ADD DUP11 SWAP1 SSTORE DUP2 MLOAD PUSH1 0x60 DUP2 ADD DUP4 MSTORE DUP10 DUP2 MSTORE DUP1 DUP5 ADD DUP10 SWAP1 MSTORE SWAP2 DUP3 ADD DUP8 SWAP1 MSTORE SWAP4 DUP4 MSTORE SWAP2 SWAP1 MSTORE SWAP1 PUSH1 0x3 DUP8 MOD PUSH1 0x3 DUP2 LT PUSH2 0x477 JUMPI INVALID JUMPDEST PUSH1 0x3 MUL ADD PUSH1 0x0 DUP3 ADD MLOAD DUP2 PUSH1 0x0 ADD SSTORE PUSH1 0x20 DUP3 ADD MLOAD DUP2 PUSH1 0x1 ADD SSTORE PUSH1 0x40 DUP3 ADD MLOAD DUP2 PUSH1 0x2 ADD SSTORE SWAP1 POP POP PUSH1 0x1 SLOAD DUP6 GT ISZERO PUSH2 0x4AE JUMPI POP PUSH1 0x1 PUSH2 0x4B2 JUMP JUMPDEST POP PUSH1 0x0 JUMPDEST SWAP5 SWAP4 POP POP POP POP JUMP JUMPDEST PUSH1 0x1 DUP3 GT PUSH2 0x4C7 JUMPI PUSH1 0x0 DUP1 REVERT JUMPDEST PUSH1 0xA PUSH4 0x618473FF NOT TIMESTAMP ADD DIV DUP3 EQ PUSH2 0x4DD JUMPI PUSH1 0x0 DUP1 REVERT JUMPDEST PUSH1 0x1 SLOAD DUP3 GT PUSH2 0x4EB JUMPI PUSH1 0x0 DUP1 REVERT JUMPDEST CALLER COINBASE EQ DUP1 ISZERO PUSH2 0x4FB JUMPI POP COINBASE PUSH2 0xDEAD EQ JUMPDEST ISZERO PUSH2 0x51F JUMPI PUSH1 0x1 DUP3 SWAP1 SSTORE DUP1 PUSH1 0x2 PUSH2 0xEC40 PUSH1 0x0 NOT DUP6 ADD MOD PUSH2 0xEC40 DUP2 LT PUSH2 0x51C JUMPI INVALID JUMPDEST ADD SSTORE JUMPDEST POP POP JUMP JUMPDEST PUSH1 0x1 SLOAD DUP2 JUMP JUMPDEST PUSH2 0xEC40 DUP2 JUMP JUMPDEST PUSH1 0xA DUP2 JUMP INVALID LOG2 PUSH5 0x6970667358 0x22 SLT KECCAK256 REVERT 0x4D 0xCD PUSH23 0xF81FD8DE07CB36A7A743F77980A92D5FE3AAD45000610E NUMBER 0xA7 0xE3 SWAP15 COINBASE PUSH5 0x736F6C6343 STOP SMOD MOD STOP CALLER "
        },
        "methodIdentifiers": {
          "BUFFER_TIMESTAMP_OFFSET()": "4b8a125f",
          "BUFFER_WINDOW()": "f5f59a4a",
          "SIGNAL_COINBASE()": "7ff6faa6",
          "TOTAL_STORED_BUFFERS()": "5f8c940d",
          "TOTAL_STORED_PROOFS()": "f417c9d8",
          "buffers(address)": "71e24574",
          "finaliseRound(uint256,bytes32)": "eaebf6d3",
          "getAttestation(uint256)": "29be4db2",
          "merkleRoots(uint256)": "71c5ecb1",
          "requestAttestations(uint256,bytes32)": "7c3931c6",
          "submitAttestation(uint256,bytes32,bytes32,bytes32)": "cfd1fdad",
          "totalBuffers()": "ec7424a0"
        }
      }
    }
  }
}