{
  "_format": "hh-sol-artifact-1",
  "contractName": "HashTest",
  "sourceName": "contracts/HashTest.sol",
  "abi": [
    {
      "inputs": [
        {
          "internalType": "uint32",
          "name": "typ",
          "type": "uint32"
        },
        {
          "internalType": "uint64",
          "name": "chainId",
          "type": "uint64"
        },
        {
          "internalType": "uint64",
          "name": "blockNumber",
          "type": "uint64"
        },
        {
          "internalType": "bytes32",
          "name": "txId",
          "type": "bytes32"
        },
        {
          "internalType": "uint16",
          "name": "utxo",
          "type": "uint16"
        },
        {
          "internalType": "string",
          "name": "sourceAddress",
          "type": "string"
        },
        {
          "internalType": "string",
          "name": "destinationAddress",
          "type": "string"
        },
        {
          "internalType": "uint256",
          "name": "destinationTag",
          "type": "uint256"
        },
        {
          "internalType": "uint256",
          "name": "amount",
          "type": "uint256"
        },
        {
          "internalType": "uint32",
          "name": "gasOrFee",
          "type": "uint32"
        },
        {
          "internalType": "bytes32",
          "name": "hashToProve",
          "type": "bytes32"
        }
      ],
      "name": "test",
      "outputs": [
        {
          "internalType": "bool",
          "name": "_match",
          "type": "bool"
        }
      ],
      "stateMutability": "pure",
      "type": "function"
    },
    {
      "inputs": [
        {
          "internalType": "bytes32",
          "name": "txHash",
          "type": "bytes32"
        },
        {
          "internalType": "uint256[]",
          "name": "sides",
          "type": "uint256[]"
        },
        {
          "internalType": "bytes32[]",
          "name": "hashes",
          "type": "bytes32[]"
        },
        {
          "internalType": "bytes32",
          "name": "targetHash",
          "type": "bytes32"
        }
      ],
      "name": "verifyMerkleProof",
      "outputs": [
        {
          "internalType": "bool",
          "name": "_match",
          "type": "bool"
        }
      ],
      "stateMutability": "pure",
      "type": "function"
    }
  ],
  "bytecode": "0x608060405234801561001057600080fd5b50610421806100206000396000f3fe608060405234801561001057600080fd5b50600436106100365760003560e01c8063b38a9d2f1461003b578063b9e4d3c014610114575b600080fd5b6101006004803603608081101561005157600080fd5b81359190810190604081016020820135600160201b81111561007257600080fd5b82018360208201111561008457600080fd5b803590602001918460208302840111600160201b831117156100a557600080fd5b919390929091602081019035600160201b8111156100c257600080fd5b8201836020820111156100d457600080fd5b803590602001918460208302840111600160201b831117156100f557600080fd5b919350915035610222565b604080519115158252519081900360200190f35b610100600480360361016081101561012b57600080fd5b63ffffffff8235169167ffffffffffffffff602082013581169260408301359091169160608101359161ffff608083013516919081019060c0810160a0820135600160201b81111561017c57600080fd5b82018360208201111561018e57600080fd5b803590602001918460018302840111600160201b831117156101af57600080fd5b919390929091602081019035600160201b8111156101cc57600080fd5b8201836020820111156101de57600080fd5b803590602001918460018302840111600160201b831117156101ff57600080fd5b919350915080359060208101359063ffffffff60408201351690606001356102ec565b600086815b868110156102de5787878281811061023b57fe5b90506020020135600014156102925785858281811061025657fe5b905060200201358260405160200180838152602001828152602001925050506040516020818303038152906040528051906020012091506102d6565b8186868381811061029f57fe5b9050602002013560405160200180838152602001828152602001925050506040516020818303038152906040528051906020012091505b600101610227565b509091149695505050505050565b6000808e8e8e8e8e8e8e8e8e8e8e8e604051602001808d63ffffffff1681526020018c67ffffffffffffffff1681526020018b67ffffffffffffffff1681526020018a81526020018961ffff16815260200180602001806020018681526020018581526020018463ffffffff16815260200183810383528a8a82818152602001925080828437600083820152601f01601f191690910184810383528881526020019050888880828437600081840152601f19601f8201169050808301925050509e5050505050505050505050505050506040516020818303038152906040528051906020012090508281149150509d9c5050505050505050505050505056fea2646970667358221220dd210585e36585a62ce42ed5e5336a40c1799ce396be513d323462b9121d80b864736f6c63430007060033",
  "linkReferences": {},
  "deployedLinkReferences": {}
}