{
  "_format": "hh-sol-artifact-1",
  "contractName": "HashTest",
  "sourceName": "contracts/HashTest.sol",
  "abi": [
    {
      "inputs": [
        {
          "internalType": "uint32",
          "name": "typ",
          "type": "uint32"
        },
        {
          "internalType": "uint64",
          "name": "chainId",
          "type": "uint64"
        },
        {
          "internalType": "uint64",
          "name": "blockNumber",
          "type": "uint64"
        },
        {
          "internalType": "bytes32",
          "name": "txId",
          "type": "bytes32"
        },
        {
          "internalType": "uint16",
          "name": "utxo",
          "type": "uint16"
        },
        {
          "internalType": "string",
          "name": "sourceAddress",
          "type": "string"
        },
        {
          "internalType": "string",
          "name": "destinationAddress",
          "type": "string"
        },
        {
          "internalType": "uint256",
          "name": "destinationTag",
          "type": "uint256"
        },
        {
          "internalType": "uint256",
          "name": "amount",
          "type": "uint256"
        },
        {
          "internalType": "uint32",
          "name": "gas",
          "type": "uint32"
        },
        {
          "internalType": "bytes32",
          "name": "hashToProve",
          "type": "bytes32"
        }
      ],
      "name": "test",
      "outputs": [
        {
          "internalType": "bytes32",
          "name": "_hash",
          "type": "bytes32"
        }
      ],
      "stateMutability": "view",
      "type": "function"
    }
  ],
  "bytecode": "0x608060405234801561001057600080fd5b50610282806100206000396000f3fe608060405234801561001057600080fd5b506004361061002b5760003560e01c8063b9e4d3c014610030575b600080fd5b610142600480360361016081101561004757600080fd5b63ffffffff8235169167ffffffffffffffff602082013581169260408301359091169160608101359161ffff608083013516919081019060c0810160a082013564010000000081111561009957600080fd5b8201836020820111156100ab57600080fd5b803590602001918460018302840111640100000000831117156100cd57600080fd5b9193909290916020810190356401000000008111156100eb57600080fd5b8201836020820111156100fd57600080fd5b8035906020019184600183028401116401000000008311171561011f57600080fd5b919350915080359060208101359063ffffffff6040820135169060600135610154565b60408051918252519081900360200190f35b60008d8d8d8d8d8d8d8d8d8d8d8d604051602001808d63ffffffff1681526020018c67ffffffffffffffff1681526020018b67ffffffffffffffff1681526020018a81526020018961ffff16815260200180602001806020018681526020018581526020018463ffffffff16815260200183810383528a8a82818152602001925080828437600083820152601f01601f191690910184810383528881526020019050888880828437600081840152601f19601f8201169050808301925050509e5050505050505050505050505050506040516020818303038152906040528051906020012090509d9c5050505050505050505050505056fea2646970667358221220ded138f3951ca61bb338ff42341396c721ad95d46318ced7738e6706a146203b64736f6c63430007060033",
  "linkReferences": {},
  "deployedLinkReferences": {}
}